{
  "contractName": "pnlp",
  "abi": [
    {
      "anonymous": false,
      "inputs": [
        {
          "indexed": false,
          "internalType": "string",
          "name": "publicationName",
          "type": "string"
        },
        {
          "indexed": false,
          "internalType": "string",
          "name": "ipnsHash",
          "type": "string"
        },
        {
          "indexed": false,
          "internalType": "address",
          "name": "publisher",
          "type": "address"
        },
        {
          "indexed": false,
          "internalType": "uint256",
          "name": "timestamp",
          "type": "uint256"
        }
      ],
      "name": "CreatedPublication",
      "type": "event"
    },
    {
      "anonymous": false,
      "inputs": [
        {
          "indexed": false,
          "internalType": "string",
          "name": "publicationName",
          "type": "string"
        },
        {
          "indexed": false,
          "internalType": "address",
          "name": "publisher",
          "type": "address"
        },
        {
          "indexed": false,
          "internalType": "uint256",
          "name": "timestamp",
          "type": "uint256"
        }
      ],
      "name": "PublishedArticle",
      "type": "event"
    },
    {
      "anonymous": false,
      "inputs": [
        {
          "indexed": false,
          "internalType": "string",
          "name": "ipfsHash",
          "type": "string"
        },
        {
          "indexed": false,
          "internalType": "address",
          "name": "reviewer",
          "type": "address"
        },
        {
          "indexed": false,
          "internalType": "address",
          "name": "requester",
          "type": "address"
        },
        {
          "indexed": false,
          "internalType": "uint256",
          "name": "timestamp",
          "type": "uint256"
        }
      ],
      "name": "RequestedReview",
      "type": "event"
    },
    {
      "anonymous": false,
      "inputs": [
        {
          "indexed": false,
          "internalType": "string",
          "name": "ipfsHash",
          "type": "string"
        },
        {
          "indexed": false,
          "internalType": "address",
          "name": "reviewer",
          "type": "address"
        },
        {
          "indexed": false,
          "internalType": "bool",
          "name": "approved",
          "type": "bool"
        },
        {
          "indexed": false,
          "internalType": "uint8",
          "name": "rating",
          "type": "uint8"
        },
        {
          "indexed": false,
          "internalType": "uint256",
          "name": "timestamp",
          "type": "uint256"
        }
      ],
      "name": "ReviewedArticle",
      "type": "event"
    },
    {
      "constant": true,
      "inputs": [
        {
          "internalType": "string",
          "name": "",
          "type": "string"
        }
      ],
      "name": "articles",
      "outputs": [
        {
          "internalType": "address",
          "name": "publisher",
          "type": "address"
        },
        {
          "internalType": "uint256",
          "name": "timestamp",
          "type": "uint256"
        }
      ],
      "payable": false,
      "stateMutability": "view",
      "type": "function"
    },
    {
      "constant": true,
      "inputs": [
        {
          "internalType": "string",
          "name": "",
          "type": "string"
        }
      ],
      "name": "publications",
      "outputs": [
        {
          "internalType": "string",
          "name": "ipnsHash",
          "type": "string"
        },
        {
          "internalType": "address",
          "name": "publisher",
          "type": "address"
        },
        {
          "internalType": "uint256",
          "name": "timestamp",
          "type": "uint256"
        }
      ],
      "payable": false,
      "stateMutability": "view",
      "type": "function"
    },
    {
      "constant": true,
      "inputs": [
        {
          "internalType": "string",
          "name": "",
          "type": "string"
        }
      ],
      "name": "reviews",
      "outputs": [
        {
          "internalType": "bool",
          "name": "approved",
          "type": "bool"
        },
        {
          "internalType": "uint8",
          "name": "rating",
          "type": "uint8"
        },
        {
          "internalType": "address",
          "name": "reviewer",
          "type": "address"
        }
      ],
      "payable": false,
      "stateMutability": "view",
      "type": "function"
    },
    {
      "constant": false,
      "inputs": [
        {
          "internalType": "string",
          "name": "ipfsHash",
          "type": "string"
        },
        {
          "internalType": "bool",
          "name": "approved",
          "type": "bool"
        },
        {
          "internalType": "uint8",
          "name": "rating",
          "type": "uint8"
        }
      ],
      "name": "reviewArticle",
      "outputs": [],
      "payable": false,
      "stateMutability": "nonpayable",
      "type": "function"
    },
    {
      "constant": false,
      "inputs": [
        {
          "internalType": "string",
          "name": "publicationName",
          "type": "string"
        },
        {
          "internalType": "string",
          "name": "ipnsHash",
          "type": "string"
        }
      ],
      "name": "createPublication",
      "outputs": [],
      "payable": false,
      "stateMutability": "nonpayable",
      "type": "function"
    },
    {
      "constant": false,
      "inputs": [
        {
          "internalType": "string",
          "name": "publicationName",
          "type": "string"
        },
        {
          "internalType": "string",
          "name": "ipfsHash",
          "type": "string"
        }
      ],
      "name": "publishArticle",
      "outputs": [],
      "payable": false,
      "stateMutability": "nonpayable",
      "type": "function"
    }
  ],
  "bytecode": "0x608060405234801561001057600080fd5b50611390806100206000396000f3fe608060405234801561001057600080fd5b50600436106100625760003560e01c806339c992e6146100675780633e1c8b8e1461017a5780637c702b8d146102cc57806395961f05146103ce578063cd57d05614610520578063dcc2bbe7146105f4575b600080fd5b6101206004803603602081101561007d57600080fd5b810190808035906020019064010000000081111561009a57600080fd5b8201836020820111156100ac57600080fd5b803590602001918460018302840111640100000000831117156100ce57600080fd5b91908080601f016020809104026020016040519081016040528093929190818152602001838380828437600081840152601f19601f820116905080830192505050505050509192919290505050610762565b60405180841515151581526020018360ff1660ff1681526020018273ffffffffffffffffffffffffffffffffffffffff1673ffffffffffffffffffffffffffffffffffffffff168152602001935050505060405180910390f35b6102ca6004803603604081101561019057600080fd5b81019080803590602001906401000000008111156101ad57600080fd5b8201836020820111156101bf57600080fd5b803590602001918460018302840111640100000000831117156101e157600080fd5b91908080601f016020809104026020016040519081016040528093929190818152602001838380828437600081840152601f19601f8201169050808301925050505050505091929192908035906020019064010000000081111561024457600080fd5b82018360208201111561025657600080fd5b8035906020019184600183028401116401000000008311171561027857600080fd5b91908080601f016020809104026020016040519081016040528093929190818152602001838380828437600081840152601f19601f8201169050808301925050505050505091929192905050506107dc565b005b610385600480360360208110156102e257600080fd5b81019080803590602001906401000000008111156102ff57600080fd5b82018360208201111561031157600080fd5b8035906020019184600183028401116401000000008311171561033357600080fd5b91908080601f016020809104026020016040519081016040528093929190818152602001838380828437600081840152601f19601f820116905080830192505050505050509192919290505050610b4d565b604051808373ffffffffffffffffffffffffffffffffffffffff1673ffffffffffffffffffffffffffffffffffffffff1681526020018281526020019250505060405180910390f35b61051e600480360360408110156103e457600080fd5b810190808035906020019064010000000081111561040157600080fd5b82018360208201111561041357600080fd5b8035906020019184600183028401116401000000008311171561043557600080fd5b91908080601f016020809104026020016040519081016040528093929190818152602001838380828437600081840152601f19601f8201169050808301925050505050505091929192908035906020019064010000000081111561049857600080fd5b8201836020820111156104aa57600080fd5b803590602001918460018302840111640100000000831117156104cc57600080fd5b91908080601f016020809104026020016040519081016040528093929190818152602001838380828437600081840152601f19601f820116905080830192505050505050509192919290505050610ba7565b005b6105f26004803603606081101561053657600080fd5b810190808035906020019064010000000081111561055357600080fd5b82018360208201111561056557600080fd5b8035906020019184600183028401116401000000008311171561058757600080fd5b91908080601f016020809104026020016040519081016040528093929190818152602001838380828437600081840152601f19601f820116905080830192505050505050509192919290803515159060200190929190803560ff169060200190929190505050610e87565b005b6106ad6004803603602081101561060a57600080fd5b810190808035906020019064010000000081111561062757600080fd5b82018360208201111561063957600080fd5b8035906020019184600183028401116401000000008311171561065b57600080fd5b91908080601f016020809104026020016040519081016040528093929190818152602001838380828437600081840152601f19601f8201169050808301925050505050505091929192905050506110b4565b60405180806020018473ffffffffffffffffffffffffffffffffffffffff1673ffffffffffffffffffffffffffffffffffffffff168152602001838152602001828103825285818151815260200191508051906020019080838360005b8381101561072557808201518184015260208101905061070a565b50505050905090810190601f1680156107525780820380516001836020036101000a031916815260200191505b5094505050505060405180910390f35b6002818051602081018201805184825260208301602085012081835280955050505050506000915090508060000160009054906101000a900460ff16908060000160019054906101000a900460ff16908060000160029054906101000a900473ffffffffffffffffffffffffffffffffffffffff16905083565b600073ffffffffffffffffffffffffffffffffffffffff166000836040518082805190602001908083835b6020831061082a5780518252602082019150602081019050602083039250610807565b6001836020036101000a038019825116818451168082178552505050505050905001915050908152602001604051809103902060010160009054906101000a900473ffffffffffffffffffffffffffffffffffffffff1673ffffffffffffffffffffffffffffffffffffffff16146108ed576040517f08c379a00000000000000000000000000000000000000000000000000000000081526004018080602001828103825260218152602001806112f56021913960400191505060405180910390fd5b7f59cb0ab4451a9a717d0495bf2d4808188e4128a6b9210b00998b09b6c7e9c02c828233426040518080602001806020018573ffffffffffffffffffffffffffffffffffffffff1673ffffffffffffffffffffffffffffffffffffffff168152602001848152602001838103835287818151815260200191508051906020019080838360005b8381101561098e578082015181840152602081019050610973565b50505050905090810190601f1680156109bb5780820380516001836020036101000a031916815260200191505b50838103825286818151815260200191508051906020019080838360005b838110156109f45780820151818401526020810190506109d9565b50505050905090810190601f168015610a215780820380516001836020036101000a031916815260200191505b50965050505050505060405180910390a1610a3a6111ac565b60405180606001604052808381526020013373ffffffffffffffffffffffffffffffffffffffff168152602001428152509050806000846040518082805190602001908083835b60208310610aa45780518252602082019150602081019050602083039250610a81565b6001836020036101000a03801982511681845116808217855250505050505090500191505090815260200160405180910390206000820151816000019080519060200190610af39291906111e3565b5060208201518160010160006101000a81548173ffffffffffffffffffffffffffffffffffffffff021916908373ffffffffffffffffffffffffffffffffffffffff16021790555060408201518160020155905050505050565b6001818051602081018201805184825260208301602085012081835280955050505050506000915090508060000160009054906101000a900473ffffffffffffffffffffffffffffffffffffffff16908060010154905082565b3373ffffffffffffffffffffffffffffffffffffffff166000836040518082805190602001908083835b60208310610bf45780518252602082019150602081019050602083039250610bd1565b6001836020036101000a038019825116818451168082178552505050505050905001915050908152602001604051809103902060010160009054906101000a900473ffffffffffffffffffffffffffffffffffffffff1673ffffffffffffffffffffffffffffffffffffffff1614610cb7576040517f08c379a00000000000000000000000000000000000000000000000000000000081526004018080602001828103825260468152602001806113166046913960600191505060405180910390fd5b7f4ec7a96987a897f99c993ec01a455ace03c64a9a15d2dad51d2f0774924fb2a382334260405180806020018473ffffffffffffffffffffffffffffffffffffffff1673ffffffffffffffffffffffffffffffffffffffff168152602001838152602001828103825285818151815260200191508051906020019080838360005b83811015610d53578082015181840152602081019050610d38565b50505050905090810190601f168015610d805780820380516001836020036101000a031916815260200191505b5094505050505060405180910390a1610d97611263565b60405180604001604052803373ffffffffffffffffffffffffffffffffffffffff168152602001428152509050806001836040518082805190602001908083835b60208310610dfb5780518252602082019150602081019050602083039250610dd8565b6001836020036101000a038019825116818451168082178552505050505050905001915050908152602001604051809103902060008201518160000160006101000a81548173ffffffffffffffffffffffffffffffffffffffff021916908373ffffffffffffffffffffffffffffffffffffffff16021790555060208201518160010155905050505050565b7f9212e16afc41706e46d28fdd3df103a449fd57ffddd1648fa7e5bb1acac71ecc833384844260405180806020018673ffffffffffffffffffffffffffffffffffffffff1673ffffffffffffffffffffffffffffffffffffffff168152602001851515151581526020018460ff1660ff168152602001838152602001828103825287818151815260200191508051906020019080838360005b83811015610f3b578082015181840152602081019050610f20565b50505050905090810190601f168015610f685780820380516001836020036101000a031916815260200191505b50965050505050505060405180910390a1610f81611293565b604051806060016040528084151581526020018360ff1681526020013373ffffffffffffffffffffffffffffffffffffffff168152509050806002856040518082805190602001908083835b60208310610ff05780518252602082019150602081019050602083039250610fcd565b6001836020036101000a038019825116818451168082178552505050505050905001915050908152602001604051809103902060008201518160000160006101000a81548160ff02191690831515021790555060208201518160000160016101000a81548160ff021916908360ff16021790555060408201518160000160026101000a81548173ffffffffffffffffffffffffffffffffffffffff021916908373ffffffffffffffffffffffffffffffffffffffff16021790555090505050505050565b600081805160208101820180518482526020830160208501208183528095505050505050600091509050806000018054600181600116156101000203166002900480601f0160208091040260200160405190810160405280929190818152602001828054600181600116156101000203166002900480156111765780601f1061114b57610100808354040283529160200191611176565b820191906000526020600020905b81548152906001019060200180831161115957829003601f168201915b5050505050908060010160009054906101000a900473ffffffffffffffffffffffffffffffffffffffff16908060020154905083565b604051806060016040528060608152602001600073ffffffffffffffffffffffffffffffffffffffff168152602001600081525090565b828054600181600116156101000203166002900490600052602060002090601f016020900481019282601f1061122457805160ff1916838001178555611252565b82800160010185558215611252579182015b82811115611251578251825591602001919060010190611236565b5b50905061125f91906112cf565b5090565b6040518060400160405280600073ffffffffffffffffffffffffffffffffffffffff168152602001600081525090565b6040518060600160405280600015158152602001600060ff168152602001600073ffffffffffffffffffffffffffffffffffffffff1681525090565b6112f191905b808211156112ed5760008160009055506001016112d5565b5090565b9056fe7075626c69636174696f6e4e616d6520697320616c726561647920696e2075736561727469636c65732063616e206f6e6c7920626520616464656420746f2061207075626c69636174696f6e20627920746865207075626c69636174696f6e2063726561746f72a265627a7a7231582088a7055300371dea3772b8e58844aa7539ea735be00f206f6c60e4c5aa28dd6564736f6c63430005100032",
  "source": "pragma solidity >=0.4.25 <0.7.0;\n\ncontract pnlp {\n    struct Publication {\n        string ipnsHash;\n        address publisher;\n        uint256 timestamp;\n    }\n\n    struct Article {\n        address publisher;\n        uint256 timestamp;\n    }\n\n    struct Review {\n        bool approved;\n        uint8 rating;\n        address reviewer;\n    }\n\n    mapping(string => Publication) public publications;\n    mapping(string => Article) public articles;\n\n    // reviewerAddress, ipfsHash, requesterAddress\n    // mapping(address => mapping(string => address)) public reviewRequests;\n\n    // ipfsHash\n    mapping(string => Review) public reviews;\n\n    // serverAddress, requiredReviewer\n    // mapping(string => string[]) public requiredReviewers;\n\n    // function requestReview(string memory ipfsHash, address memory reviewer)\n    //     public\n    // {\n    //     emit RequestedReview(ipfsHash, reviewer, msg.sender, block.timestamp);\n    //     reviewRequests[reviewer][ipfsHash] = true;\n    // }\n\n    function reviewArticle(\n        string memory ipfsHash,\n        bool approved,\n        uint8 rating\n    ) public {\n        emit ReviewedArticle(\n            ipfsHash,\n            msg.sender,\n            approved,\n            rating,\n            block.timestamp\n        );\n\n        Review memory review = Review(approved, rating, msg.sender);\n        reviews[ipfsHash] = review;\n\n        // if (\n        //     reviewRequests[msg.sender] && reviewRequests[msg.sender][ipfsHash]\n        // ) {\n        //     delete reviewRequests[msg.sender][ipfsHash];\n        // }\n    }\n\n    event CreatedPublication(\n        string publicationName,\n        string ipnsHash,\n        address publisher,\n        uint256 timestamp\n    );\n\n    event PublishedArticle(\n        string publicationName,\n        address publisher,\n        uint256 timestamp\n    );\n\n    event ReviewedArticle(\n        string ipfsHash,\n        address reviewer,\n        bool approved,\n        uint8 rating,\n        uint256 timestamp\n    );\n\n    event RequestedReview(\n        string ipfsHash,\n        address reviewer,\n        address requester,\n        uint256 timestamp\n    );\n\n    function createPublication(\n        string memory publicationName,\n        string memory ipnsHash\n    ) public {\n        // Using ipns\n        // No collisions allowed!\n        // record callers address\n        // v3 Require a stake\n        require(\n            publications[publicationName].publisher == address(0),\n            \"publicationName is already in use\"\n        );\n        emit CreatedPublication(\n            publicationName,\n            ipnsHash,\n            msg.sender,\n            block.timestamp\n        );\n        Publication memory publication = Publication(\n            ipnsHash,\n            msg.sender,\n            block.timestamp\n        );\n        publications[publicationName] = publication;\n    }\n\n    function publishArticle(\n        string memory publicationName,\n        string memory ipfsHash\n    ) public {\n        require(\n            publications[publicationName].publisher == msg.sender,\n            \"articles can only be added to a publication by the publication creator\"\n        );\n\n        // Unsure about this following line. If we add it in, we need to make sure that we support it.\n        // We may want to require that the hash and the publication not be reused? Need to talk to team to figure out what we want to do...\n        // require(articles[ipfsHash].publisher == address(0), \"ipfsHash is already in use\");\n\n        emit PublishedArticle(publicationName, msg.sender, block.timestamp);\n        Article memory article = Article(msg.sender, block.timestamp);\n        articles[ipfsHash] = article;\n    }\n\n    // - Get all of the publications? - Not now (check out The Graph)\n    // - You know the publication, list all of the articles?\n    // - Get ipns hash of pulbication from name of pulbication\n    // - v3 Keep track of ipFs addresses of publications so that when ipns points to something else, history is kept.\n}\n",
  "sourcePath": "/Users/dp/code/pulp-network/pulp/pnlp-contract/contracts/pnlp.sol",
  "compiler": {
    "name": "solc",
    "version": "0.5.16+commit.9c3226ce.Emscripten.clang"
  },
  "schemaVersion": "3.4.1",
  "updatedAt": "2021-08-15T18:55:08.906Z",
  "devdoc": {
    "methods": {}
  },
  "userdoc": {
    "methods": {}
  }
}