{
  "contractName": "pnlp",
  "abi": [
    {
      "anonymous": false,
      "inputs": [
        {
          "indexed": false,
          "internalType": "string",
          "name": "publicationName",
          "type": "string"
        },
        {
          "indexed": false,
          "internalType": "string",
          "name": "ipnsHash",
          "type": "string"
        },
        {
          "indexed": false,
          "internalType": "address",
          "name": "publisher",
          "type": "address"
        },
        {
          "indexed": false,
          "internalType": "uint256",
          "name": "timestamp",
          "type": "uint256"
        }
      ],
      "name": "CreatedPublication",
      "type": "event"
    },
    {
      "anonymous": false,
      "inputs": [
        {
          "indexed": false,
          "internalType": "string",
          "name": "publicationName",
          "type": "string"
        },
        {
          "indexed": false,
          "internalType": "address",
          "name": "publisher",
          "type": "address"
        },
        {
          "indexed": false,
          "internalType": "uint256",
          "name": "timestamp",
          "type": "uint256"
        }
      ],
      "name": "PublishedArticle",
      "type": "event"
    },
    {
      "constant": true,
      "inputs": [
        {
          "internalType": "string",
          "name": "",
          "type": "string"
        }
      ],
      "name": "articles",
      "outputs": [
        {
          "internalType": "address",
          "name": "publisher",
          "type": "address"
        },
        {
          "internalType": "uint256",
          "name": "timestamp",
          "type": "uint256"
        }
      ],
      "payable": false,
      "stateMutability": "view",
      "type": "function"
    },
    {
      "constant": true,
      "inputs": [
        {
          "internalType": "string",
          "name": "",
          "type": "string"
        }
      ],
      "name": "publications",
      "outputs": [
        {
          "internalType": "string",
          "name": "ipnsHash",
          "type": "string"
        },
        {
          "internalType": "address",
          "name": "publisher",
          "type": "address"
        },
        {
          "internalType": "uint256",
          "name": "timestamp",
          "type": "uint256"
        }
      ],
      "payable": false,
      "stateMutability": "view",
      "type": "function"
    },
    {
      "constant": true,
      "inputs": [
        {
          "internalType": "string",
          "name": "",
          "type": "string"
        },
        {
          "internalType": "uint256",
          "name": "",
          "type": "uint256"
        }
      ],
      "name": "requiredReviewers",
      "outputs": [
        {
          "internalType": "string",
          "name": "",
          "type": "string"
        }
      ],
      "payable": false,
      "stateMutability": "view",
      "type": "function"
    },
    {
      "constant": true,
      "inputs": [
        {
          "internalType": "string",
          "name": "",
          "type": "string"
        },
        {
          "internalType": "address",
          "name": "",
          "type": "address"
        }
      ],
      "name": "reviews",
      "outputs": [
        {
          "internalType": "bool",
          "name": "",
          "type": "bool"
        }
      ],
      "payable": false,
      "stateMutability": "view",
      "type": "function"
    },
    {
      "constant": true,
      "inputs": [
        {
          "internalType": "string",
          "name": "",
          "type": "string"
        },
        {
          "internalType": "uint256",
          "name": "",
          "type": "uint256"
        }
      ],
      "name": "subscribers",
      "outputs": [
        {
          "internalType": "string",
          "name": "",
          "type": "string"
        }
      ],
      "payable": false,
      "stateMutability": "view",
      "type": "function"
    },
    {
      "constant": false,
      "inputs": [
        {
          "internalType": "string",
          "name": "ipfsHash",
          "type": "string"
        },
        {
          "internalType": "bool",
          "name": "approved",
          "type": "bool"
        }
      ],
      "name": "reviewArticle",
      "outputs": [],
      "payable": false,
      "stateMutability": "nonpayable",
      "type": "function"
    },
    {
      "constant": false,
      "inputs": [
        {
          "internalType": "string",
          "name": "publicationName",
          "type": "string"
        },
        {
          "internalType": "string",
          "name": "ipnsHash",
          "type": "string"
        }
      ],
      "name": "createPublication",
      "outputs": [],
      "payable": false,
      "stateMutability": "nonpayable",
      "type": "function"
    },
    {
      "constant": false,
      "inputs": [
        {
          "internalType": "string",
          "name": "publicationName",
          "type": "string"
        },
        {
          "internalType": "string",
          "name": "ipfsHash",
          "type": "string"
        }
      ],
      "name": "publishArticle",
      "outputs": [],
      "payable": false,
      "stateMutability": "nonpayable",
      "type": "function"
    }
  ],
  "bytecode": "0x608060405234801561001057600080fd5b506115e1806100206000396000f3fe608060405234801561001057600080fd5b50600436106100885760003560e01c806395961f051161005b57806395961f0514610512578063b7cd517c14610664578063c35d96501461072b578063dcc2bbe71461086957610088565b80633e1c8b8e1461008d5780634f5485bf146101df578063519fbef61461031d5780637c702b8d14610410575b600080fd5b6101dd600480360360408110156100a357600080fd5b81019080803590602001906401000000008111156100c057600080fd5b8201836020820111156100d257600080fd5b803590602001918460018302840111640100000000831117156100f457600080fd5b91908080601f016020809104026020016040519081016040528093929190818152602001838380828437600081840152601f19601f8201169050808301925050505050505091929192908035906020019064010000000081111561015757600080fd5b82018360208201111561016957600080fd5b8035906020019184600183028401116401000000008311171561018b57600080fd5b91908080601f016020809104026020016040519081016040528093929190818152602001838380828437600081840152601f19601f8201169050808301925050505050505091929192905050506109d7565b005b6102a2600480360360408110156101f557600080fd5b810190808035906020019064010000000081111561021257600080fd5b82018360208201111561022457600080fd5b8035906020019184600183028401116401000000008311171561024657600080fd5b91908080601f016020809104026020016040519081016040528093929190818152602001838380828437600081840152601f19601f82011690508083019250505050505050919291929080359060200190929190505050610d48565b6040518080602001828103825283818151815260200191508051906020019080838360005b838110156102e25780820151818401526020810190506102c7565b50505050905090810190601f16801561030f5780820380516001836020036101000a031916815260200191505b509250505060405180910390f35b6103f66004803603604081101561033357600080fd5b810190808035906020019064010000000081111561035057600080fd5b82018360208201111561036257600080fd5b8035906020019184600183028401116401000000008311171561038457600080fd5b91908080601f016020809104026020016040519081016040528093929190818152602001838380828437600081840152601f19601f820116905080830192505050505050509192919290803573ffffffffffffffffffffffffffffffffffffffff169060200190929190505050610e24565b604051808215151515815260200191505060405180910390f35b6104c96004803603602081101561042657600080fd5b810190808035906020019064010000000081111561044357600080fd5b82018360208201111561045557600080fd5b8035906020019184600183028401116401000000008311171561047757600080fd5b91908080601f016020809104026020016040519081016040528093929190818152602001838380828437600081840152601f19601f820116905080830192505050505050509192919290505050610e69565b604051808373ffffffffffffffffffffffffffffffffffffffff1673ffffffffffffffffffffffffffffffffffffffff1681526020018281526020019250505060405180910390f35b6106626004803603604081101561052857600080fd5b810190808035906020019064010000000081111561054557600080fd5b82018360208201111561055757600080fd5b8035906020019184600183028401116401000000008311171561057957600080fd5b91908080601f016020809104026020016040519081016040528093929190818152602001838380828437600081840152601f19601f820116905080830192505050505050509192919290803590602001906401000000008111156105dc57600080fd5b8201836020820111156105ee57600080fd5b8035906020019184600183028401116401000000008311171561061057600080fd5b91908080601f016020809104026020016040519081016040528093929190818152602001838380828437600081840152601f19601f820116905080830192505050505050509192919290505050610ec3565b005b6107296004803603604081101561067a57600080fd5b810190808035906020019064010000000081111561069757600080fd5b8201836020820111156106a957600080fd5b803590602001918460018302840111640100000000831117156106cb57600080fd5b91908080601f016020809104026020016040519081016040528093929190818152602001838380828437600081840152601f19601f8201169050808301925050505050505091929192908035151590602001909291905050506111a3565b005b6107ee6004803603604081101561074157600080fd5b810190808035906020019064010000000081111561075e57600080fd5b82018360208201111561077057600080fd5b8035906020019184600183028401116401000000008311171561079257600080fd5b91908080601f016020809104026020016040519081016040528093929190818152602001838380828437600081840152601f19601f82011690508083019250505050505050919291929080359060200190929190505050611265565b6040518080602001828103825283818151815260200191508051906020019080838360005b8381101561082e578082015181840152602081019050610813565b50505050905090810190601f16801561085b5780820380516001836020036101000a031916815260200191505b509250505060405180910390f35b6109226004803603602081101561087f57600080fd5b810190808035906020019064010000000081111561089c57600080fd5b8201836020820111156108ae57600080fd5b803590602001918460018302840111640100000000831117156108d057600080fd5b91908080601f016020809104026020016040519081016040528093929190818152602001838380828437600081840152601f19601f820116905080830192505050505050509192919290505050611341565b60405180806020018473ffffffffffffffffffffffffffffffffffffffff1673ffffffffffffffffffffffffffffffffffffffff168152602001838152602001828103825285818151815260200191508051906020019080838360005b8381101561099a57808201518184015260208101905061097f565b50505050905090810190601f1680156109c75780820380516001836020036101000a031916815260200191505b5094505050505060405180910390f35b600073ffffffffffffffffffffffffffffffffffffffff166000836040518082805190602001908083835b60208310610a255780518252602082019150602081019050602083039250610a02565b6001836020036101000a038019825116818451168082178552505050505050905001915050908152602001604051809103902060010160009054906101000a900473ffffffffffffffffffffffffffffffffffffffff1673ffffffffffffffffffffffffffffffffffffffff1614610ae8576040517f08c379a00000000000000000000000000000000000000000000000000000000081526004018080602001828103825260218152602001806115466021913960400191505060405180910390fd5b7f59cb0ab4451a9a717d0495bf2d4808188e4128a6b9210b00998b09b6c7e9c02c828233426040518080602001806020018573ffffffffffffffffffffffffffffffffffffffff1673ffffffffffffffffffffffffffffffffffffffff168152602001848152602001838103835287818151815260200191508051906020019080838360005b83811015610b89578082015181840152602081019050610b6e565b50505050905090810190601f168015610bb65780820380516001836020036101000a031916815260200191505b50838103825286818151815260200191508051906020019080838360005b83811015610bef578082015181840152602081019050610bd4565b50505050905090810190601f168015610c1c5780820380516001836020036101000a031916815260200191505b50965050505050505060405180910390a1610c35611439565b60405180606001604052808381526020013373ffffffffffffffffffffffffffffffffffffffff168152602001428152509050806000846040518082805190602001908083835b60208310610c9f5780518252602082019150602081019050602083039250610c7c565b6001836020036101000a03801982511681845116808217855250505050505090500191505090815260200160405180910390206000820151816000019080519060200190610cee929190611470565b5060208201518160010160006101000a81548173ffffffffffffffffffffffffffffffffffffffff021916908373ffffffffffffffffffffffffffffffffffffffff16021790555060408201518160020155905050505050565b6004828051602081018201805184825260208301602085012081835280955050505050508181548110610d7757fe5b90600052602060002001600091509150508054600181600116156101000203166002900480601f016020809104026020016040519081016040528092919081815260200182805460018160011615610100020316600290048015610e1c5780601f10610df157610100808354040283529160200191610e1c565b820191906000526020600020905b815481529060010190602001808311610dff57829003601f168201915b505050505081565b6003828051602081018201805184825260208301602085012081835280955050505050506020528060005260406000206000915091509054906101000a900460ff1681565b6001818051602081018201805184825260208301602085012081835280955050505050506000915090508060000160009054906101000a900473ffffffffffffffffffffffffffffffffffffffff16908060010154905082565b3373ffffffffffffffffffffffffffffffffffffffff166000836040518082805190602001908083835b60208310610f105780518252602082019150602081019050602083039250610eed565b6001836020036101000a038019825116818451168082178552505050505050905001915050908152602001604051809103902060010160009054906101000a900473ffffffffffffffffffffffffffffffffffffffff1673ffffffffffffffffffffffffffffffffffffffff1614610fd3576040517f08c379a00000000000000000000000000000000000000000000000000000000081526004018080602001828103825260468152602001806115676046913960600191505060405180910390fd5b7f4ec7a96987a897f99c993ec01a455ace03c64a9a15d2dad51d2f0774924fb2a382334260405180806020018473ffffffffffffffffffffffffffffffffffffffff1673ffffffffffffffffffffffffffffffffffffffff168152602001838152602001828103825285818151815260200191508051906020019080838360005b8381101561106f578082015181840152602081019050611054565b50505050905090810190601f16801561109c5780820380516001836020036101000a031916815260200191505b5094505050505060405180910390a16110b36114f0565b60405180604001604052803373ffffffffffffffffffffffffffffffffffffffff168152602001428152509050806001836040518082805190602001908083835b6020831061111757805182526020820191506020810190506020830392506110f4565b6001836020036101000a038019825116818451168082178552505050505050905001915050908152602001604051809103902060008201518160000160006101000a81548173ffffffffffffffffffffffffffffffffffffffff021916908373ffffffffffffffffffffffffffffffffffffffff16021790555060208201518160010155905050505050565b806003836040518082805190602001908083835b602083106111da57805182526020820191506020810190506020830392506111b7565b6001836020036101000a038019825116818451168082178552505050505050905001915050908152602001604051809103902060003373ffffffffffffffffffffffffffffffffffffffff1673ffffffffffffffffffffffffffffffffffffffff16815260200190815260200160002060006101000a81548160ff0219169083151502179055505050565b600282805160208101820180518482526020830160208501208183528095505050505050818154811061129457fe5b90600052602060002001600091509150508054600181600116156101000203166002900480601f0160208091040260200160405190810160405280929190818152602001828054600181600116156101000203166002900480156113395780601f1061130e57610100808354040283529160200191611339565b820191906000526020600020905b81548152906001019060200180831161131c57829003601f168201915b505050505081565b600081805160208101820180518482526020830160208501208183528095505050505050600091509050806000018054600181600116156101000203166002900480601f0160208091040260200160405190810160405280929190818152602001828054600181600116156101000203166002900480156114035780601f106113d857610100808354040283529160200191611403565b820191906000526020600020905b8154815290600101906020018083116113e657829003601f168201915b5050505050908060010160009054906101000a900473ffffffffffffffffffffffffffffffffffffffff16908060020154905083565b604051806060016040528060608152602001600073ffffffffffffffffffffffffffffffffffffffff168152602001600081525090565b828054600181600116156101000203166002900490600052602060002090601f016020900481019282601f106114b157805160ff19168380011785556114df565b828001600101855582156114df579182015b828111156114de5782518255916020019190600101906114c3565b5b5090506114ec9190611520565b5090565b6040518060400160405280600073ffffffffffffffffffffffffffffffffffffffff168152602001600081525090565b61154291905b8082111561153e576000816000905550600101611526565b5090565b9056fe7075626c69636174696f6e4e616d6520697320616c726561647920696e2075736561727469636c65732063616e206f6e6c7920626520616464656420746f2061207075626c69636174696f6e20627920746865207075626c69636174696f6e2063726561746f72a265627a7a723158200876f24ff9aae120e3385b63e82c702ad3e4a0766290f63421702d166d8c514364736f6c63430005100032",
  "source": "pragma solidity >=0.4.25 <0.7.0;\n\ncontract pnlp {\n    struct Publication {\n        string ipnsHash;\n        address publisher;\n        uint256 timestamp;\n    }\n\n    struct Article {\n        address publisher;\n        uint256 timestamp;\n    }\n\n    mapping(string => Publication) public publications;\n    mapping(string => Article) public articles;\n\n    /// BEGIN HackFS Comments from conversation from 08/04\n\n    // (1) Subscriber opens Superfluid stream -> Publication\n    // (2) Author on Article Publish, create IPFS file: encrypt(ipfs/abcasdfasdf)\n\n    // solution A: security through obscurity (leave it in plaintext)\n    // solution A2: security through \"NFT-effect\" (leave it in plaintext, we don't care if people discover)\n\n    // solution B1: encrypt(ipfs/abcasdfasdf) => send the keys to each of subscribers\n    // solution B2: encrypt(ipfs/abcasdfasdf) x N => using key accessible to each subscriber\n\n    // where string is publicationName, subscribers\n    mapping(string => string[]) public subscribers;\n\n    // TODO: etc...\n    // where reviewerAddress, ipfsHash\n    // mapping(string => mapping(string => bool)) public reviewRequests;\n\n    // where string is ipfsHash, reviewerAddress\n    mapping(string => mapping(address => bool)) public reviews;\n\n    // where string is serverAddress, requiredReviewer\n    mapping(string => string[]) public requiredReviewers;\n\n    function reviewArticle(string memory ipfsHash, bool approved)\n        public\n    {\n        // TODO:etc...\n        reviews[ipfsHash][msg.sender] = approved;\n    }\n\n    /// END HackFS Comments from conversation between Dan/Brahma\n\n    event CreatedPublication(\n        string publicationName,\n        string ipnsHash,\n        address publisher,\n        uint256 timestamp\n    );\n    event PublishedArticle(\n        string publicationName,\n        address publisher,\n        uint256 timestamp\n    );\n\n    function createPublication(\n        string memory publicationName,\n        string memory ipnsHash\n    ) public {\n        // Using ipns\n        // No collisions allowed!\n        // record callers address\n        // v3 Require a stake\n        require(\n            publications[publicationName].publisher == address(0),\n            \"publicationName is already in use\"\n        );\n        emit CreatedPublication(\n            publicationName,\n            ipnsHash,\n            msg.sender,\n            block.timestamp\n        );\n        Publication memory publication = Publication(\n            ipnsHash,\n            msg.sender,\n            block.timestamp\n        );\n        publications[publicationName] = publication;\n    }\n\n    function publishArticle(\n        string memory publicationName,\n        string memory ipfsHash\n    ) public {\n        require(\n            publications[publicationName].publisher == msg.sender,\n            \"articles can only be added to a publication by the publication creator\"\n        );\n\n        // Unsure about this following line. If we add it in, we need to make sure that we support it.\n        // We may want to require that the hash and the publication not be reused? Need to talk to team to figure out what we want to do...\n        // require(articles[ipfsHash].publisher == address(0), \"ipfsHash is already in use\");\n\n        emit PublishedArticle(publicationName, msg.sender, block.timestamp);\n        Article memory article = Article(msg.sender, block.timestamp);\n        articles[ipfsHash] = article;\n    }\n\n    // - Get all of the publications? - Not now (check out The Graph)\n    // - You know the publication, list all of the articles?\n    // - Get ipns hash of pulbication from name of pulbication\n    // - v3 Keep track of ipFs addresses of publications so that when ipns points to something else, history is kept.\n}\n",
  "sourcePath": "/home/brahma/apps/hackfs/pulp/pnlp-contract/contracts/pnlp.sol",
  "compiler": {
    "name": "solc",
    "version": "0.5.16+commit.9c3226ce.Emscripten.clang"
  },
  "schemaVersion": "3.4.0",
  "updatedAt": "2021-08-09T19:47:03.561Z",
  "networkType": "ethereum",
  "devdoc": {
    "methods": {}
  },
  "userdoc": {
    "methods": {}
  }
}