{
  "contractName": "pnlp",
  "abi": [
    {
      "anonymous": false,
      "inputs": [
        {
          "indexed": false,
          "internalType": "string",
          "name": "publicationName",
          "type": "string"
        },
        {
          "indexed": false,
          "internalType": "string",
          "name": "ipnsHash",
          "type": "string"
        },
        {
          "indexed": false,
          "internalType": "address",
          "name": "publisher",
          "type": "address"
        },
        {
          "indexed": false,
          "internalType": "uint256",
          "name": "timestamp",
          "type": "uint256"
        }
      ],
      "name": "CreatedPublication",
      "type": "event"
    },
    {
      "anonymous": false,
      "inputs": [
        {
          "indexed": false,
          "internalType": "string",
          "name": "publicationName",
          "type": "string"
        },
        {
          "indexed": false,
          "internalType": "address",
          "name": "publisher",
          "type": "address"
        },
        {
          "indexed": false,
          "internalType": "uint256",
          "name": "timestamp",
          "type": "uint256"
        }
      ],
      "name": "PublishedArticle",
      "type": "event"
    },
    {
      "anonymous": false,
      "inputs": [
        {
          "indexed": false,
          "internalType": "string",
          "name": "ipfsHash",
          "type": "string"
        },
        {
          "indexed": false,
          "internalType": "address",
          "name": "reviewer",
          "type": "address"
        },
        {
          "indexed": false,
          "internalType": "address",
          "name": "requester",
          "type": "address"
        },
        {
          "indexed": false,
          "internalType": "uint256",
          "name": "timestamp",
          "type": "uint256"
        }
      ],
      "name": "RequestedReview",
      "type": "event"
    },
    {
      "anonymous": false,
      "inputs": [
        {
          "indexed": false,
          "internalType": "string",
          "name": "ipfsHash",
          "type": "string"
        },
        {
          "indexed": false,
          "internalType": "address",
          "name": "reviewer",
          "type": "address"
        },
        {
          "indexed": false,
          "internalType": "bool",
          "name": "approved",
          "type": "bool"
        },
        {
          "indexed": false,
          "internalType": "uint8",
          "name": "rating",
          "type": "uint8"
        },
        {
          "indexed": false,
          "internalType": "uint256",
          "name": "timestamp",
          "type": "uint256"
        }
      ],
      "name": "ReviewedArticle",
      "type": "event"
    },
    {
      "constant": true,
      "inputs": [
        {
          "internalType": "string",
          "name": "",
          "type": "string"
        }
      ],
      "name": "articles",
      "outputs": [
        {
          "internalType": "address",
          "name": "publisher",
          "type": "address"
        },
        {
          "internalType": "uint256",
          "name": "timestamp",
          "type": "uint256"
        }
      ],
      "payable": false,
      "stateMutability": "view",
      "type": "function"
    },
    {
      "constant": true,
      "inputs": [
        {
          "internalType": "string",
          "name": "",
          "type": "string"
        }
      ],
      "name": "publications",
      "outputs": [
        {
          "internalType": "string",
          "name": "ipnsHash",
          "type": "string"
        },
        {
          "internalType": "address",
          "name": "publisher",
          "type": "address"
        },
        {
          "internalType": "uint256",
          "name": "timestamp",
          "type": "uint256"
        }
      ],
      "payable": false,
      "stateMutability": "view",
      "type": "function"
    },
    {
      "constant": true,
      "inputs": [
        {
          "internalType": "string",
          "name": "",
          "type": "string"
        },
        {
          "internalType": "uint256",
          "name": "",
          "type": "uint256"
        }
      ],
      "name": "reviews",
      "outputs": [
        {
          "internalType": "bool",
          "name": "approved",
          "type": "bool"
        },
        {
          "internalType": "uint8",
          "name": "rating",
          "type": "uint8"
        },
        {
          "internalType": "address",
          "name": "reviewer",
          "type": "address"
        }
      ],
      "payable": false,
      "stateMutability": "view",
      "type": "function"
    },
    {
      "constant": false,
      "inputs": [
        {
          "internalType": "string",
          "name": "ipfsHash",
          "type": "string"
        },
        {
          "internalType": "bool",
          "name": "approved",
          "type": "bool"
        },
        {
          "internalType": "uint8",
          "name": "rating",
          "type": "uint8"
        }
      ],
      "name": "reviewArticle",
      "outputs": [],
      "payable": false,
      "stateMutability": "nonpayable",
      "type": "function"
    },
    {
      "constant": false,
      "inputs": [
        {
          "internalType": "string",
          "name": "publicationName",
          "type": "string"
        },
        {
          "internalType": "string",
          "name": "ipnsHash",
          "type": "string"
        }
      ],
      "name": "createPublication",
      "outputs": [],
      "payable": false,
      "stateMutability": "nonpayable",
      "type": "function"
    },
    {
      "constant": false,
      "inputs": [
        {
          "internalType": "string",
          "name": "publicationName",
          "type": "string"
        },
        {
          "internalType": "string",
          "name": "ipfsHash",
          "type": "string"
        }
      ],
      "name": "publishArticle",
      "outputs": [],
      "payable": false,
      "stateMutability": "nonpayable",
      "type": "function"
    }
  ],
  "bytecode": "0x608060405234801561001057600080fd5b5061138f806100206000396000f3fe608060405234801561001057600080fd5b50600436106100625760003560e01c80633e1c8b8e1461006757806371f5e27c146101b95780637c702b8d146102d657806395961f05146103d8578063cd57d0561461052a578063dcc2bbe7146105fe575b600080fd5b6101b76004803603604081101561007d57600080fd5b810190808035906020019064010000000081111561009a57600080fd5b8201836020820111156100ac57600080fd5b803590602001918460018302840111640100000000831117156100ce57600080fd5b91908080601f016020809104026020016040519081016040528093929190818152602001838380828437600081840152601f19601f8201169050808301925050505050505091929192908035906020019064010000000081111561013157600080fd5b82018360208201111561014357600080fd5b8035906020019184600183028401116401000000008311171561016557600080fd5b91908080601f016020809104026020016040519081016040528093929190818152602001838380828437600081840152601f19601f82011690508083019250505050505050919291929050505061076c565b005b61027c600480360360408110156101cf57600080fd5b81019080803590602001906401000000008111156101ec57600080fd5b8201836020820111156101fe57600080fd5b8035906020019184600183028401116401000000008311171561022057600080fd5b91908080601f016020809104026020016040519081016040528093929190818152602001838380828437600081840152601f19601f82011690508083019250505050505050919291929080359060200190929190505050610add565b60405180841515151581526020018360ff1660ff1681526020018273ffffffffffffffffffffffffffffffffffffffff1673ffffffffffffffffffffffffffffffffffffffff168152602001935050505060405180910390f35b61038f600480360360208110156102ec57600080fd5b810190808035906020019064010000000081111561030957600080fd5b82018360208201111561031b57600080fd5b8035906020019184600183028401116401000000008311171561033d57600080fd5b91908080601f016020809104026020016040519081016040528093929190818152602001838380828437600081840152601f19601f820116905080830192505050505050509192919290505050610b6d565b604051808373ffffffffffffffffffffffffffffffffffffffff1673ffffffffffffffffffffffffffffffffffffffff1681526020018281526020019250505060405180910390f35b610528600480360360408110156103ee57600080fd5b810190808035906020019064010000000081111561040b57600080fd5b82018360208201111561041d57600080fd5b8035906020019184600183028401116401000000008311171561043f57600080fd5b91908080601f016020809104026020016040519081016040528093929190818152602001838380828437600081840152601f19601f820116905080830192505050505050509192919290803590602001906401000000008111156104a257600080fd5b8201836020820111156104b457600080fd5b803590602001918460018302840111640100000000831117156104d657600080fd5b91908080601f016020809104026020016040519081016040528093929190818152602001838380828437600081840152601f19601f820116905080830192505050505050509192919290505050610bc7565b005b6105fc6004803603606081101561054057600080fd5b810190808035906020019064010000000081111561055d57600080fd5b82018360208201111561056f57600080fd5b8035906020019184600183028401116401000000008311171561059157600080fd5b91908080601f016020809104026020016040519081016040528093929190818152602001838380828437600081840152601f19601f820116905080830192505050505050509192919290803515159060200190929190803560ff169060200190929190505050610ea7565b005b6106b76004803603602081101561061457600080fd5b810190808035906020019064010000000081111561063157600080fd5b82018360208201111561064357600080fd5b8035906020019184600183028401116401000000008311171561066557600080fd5b91908080601f016020809104026020016040519081016040528093929190818152602001838380828437600081840152601f19601f8201169050808301925050505050505091929192905050506110ef565b60405180806020018473ffffffffffffffffffffffffffffffffffffffff1673ffffffffffffffffffffffffffffffffffffffff168152602001838152602001828103825285818151815260200191508051906020019080838360005b8381101561072f578082015181840152602081019050610714565b50505050905090810190601f16801561075c5780820380516001836020036101000a031916815260200191505b5094505050505060405180910390f35b600073ffffffffffffffffffffffffffffffffffffffff166000836040518082805190602001908083835b602083106107ba5780518252602082019150602081019050602083039250610797565b6001836020036101000a038019825116818451168082178552505050505050905001915050908152602001604051809103902060010160009054906101000a900473ffffffffffffffffffffffffffffffffffffffff1673ffffffffffffffffffffffffffffffffffffffff161461087d576040517f08c379a00000000000000000000000000000000000000000000000000000000081526004018080602001828103825260218152602001806112f46021913960400191505060405180910390fd5b7f59cb0ab4451a9a717d0495bf2d4808188e4128a6b9210b00998b09b6c7e9c02c828233426040518080602001806020018573ffffffffffffffffffffffffffffffffffffffff1673ffffffffffffffffffffffffffffffffffffffff168152602001848152602001838103835287818151815260200191508051906020019080838360005b8381101561091e578082015181840152602081019050610903565b50505050905090810190601f16801561094b5780820380516001836020036101000a031916815260200191505b50838103825286818151815260200191508051906020019080838360005b83811015610984578082015181840152602081019050610969565b50505050905090810190601f1680156109b15780820380516001836020036101000a031916815260200191505b50965050505050505060405180910390a16109ca6111e7565b60405180606001604052808381526020013373ffffffffffffffffffffffffffffffffffffffff168152602001428152509050806000846040518082805190602001908083835b60208310610a345780518252602082019150602081019050602083039250610a11565b6001836020036101000a03801982511681845116808217855250505050505090500191505090815260200160405180910390206000820151816000019080519060200190610a8392919061121e565b5060208201518160010160006101000a81548173ffffffffffffffffffffffffffffffffffffffff021916908373ffffffffffffffffffffffffffffffffffffffff16021790555060408201518160020155905050505050565b6002828051602081018201805184825260208301602085012081835280955050505050508181548110610b0c57fe5b90600052602060002001600091509150508060000160009054906101000a900460ff16908060000160019054906101000a900460ff16908060000160029054906101000a900473ffffffffffffffffffffffffffffffffffffffff16905083565b6001818051602081018201805184825260208301602085012081835280955050505050506000915090508060000160009054906101000a900473ffffffffffffffffffffffffffffffffffffffff16908060010154905082565b3373ffffffffffffffffffffffffffffffffffffffff166000836040518082805190602001908083835b60208310610c145780518252602082019150602081019050602083039250610bf1565b6001836020036101000a038019825116818451168082178552505050505050905001915050908152602001604051809103902060010160009054906101000a900473ffffffffffffffffffffffffffffffffffffffff1673ffffffffffffffffffffffffffffffffffffffff1614610cd7576040517f08c379a00000000000000000000000000000000000000000000000000000000081526004018080602001828103825260468152602001806113156046913960600191505060405180910390fd5b7f4ec7a96987a897f99c993ec01a455ace03c64a9a15d2dad51d2f0774924fb2a382334260405180806020018473ffffffffffffffffffffffffffffffffffffffff1673ffffffffffffffffffffffffffffffffffffffff168152602001838152602001828103825285818151815260200191508051906020019080838360005b83811015610d73578082015181840152602081019050610d58565b50505050905090810190601f168015610da05780820380516001836020036101000a031916815260200191505b5094505050505060405180910390a1610db761129e565b60405180604001604052803373ffffffffffffffffffffffffffffffffffffffff168152602001428152509050806001836040518082805190602001908083835b60208310610e1b5780518252602082019150602081019050602083039250610df8565b6001836020036101000a038019825116818451168082178552505050505050905001915050908152602001604051809103902060008201518160000160006101000a81548173ffffffffffffffffffffffffffffffffffffffff021916908373ffffffffffffffffffffffffffffffffffffffff16021790555060208201518160010155905050505050565b7f9212e16afc41706e46d28fdd3df103a449fd57ffddd1648fa7e5bb1acac71ecc833384844260405180806020018673ffffffffffffffffffffffffffffffffffffffff1673ffffffffffffffffffffffffffffffffffffffff168152602001851515151581526020018460ff1660ff168152602001838152602001828103825287818151815260200191508051906020019080838360005b83811015610f5b578082015181840152602081019050610f40565b50505050905090810190601f168015610f885780820380516001836020036101000a031916815260200191505b50965050505050505060405180910390a16002836040518082805190602001908083835b60208310610fcf5780518252602082019150602081019050602083039250610fac565b6001836020036101000a0380198251168184511680821785525050505050509050019150509081526020016040518091039020604051806060016040528084151581526020018360ff1681526020013373ffffffffffffffffffffffffffffffffffffffff1681525090806001815401808255809150509060018203906000526020600020016000909192909190915060008201518160000160006101000a81548160ff02191690831515021790555060208201518160000160016101000a81548160ff021916908360ff16021790555060408201518160000160026101000a81548173ffffffffffffffffffffffffffffffffffffffff021916908373ffffffffffffffffffffffffffffffffffffffff160217905550505050505050565b600081805160208101820180518482526020830160208501208183528095505050505050600091509050806000018054600181600116156101000203166002900480601f0160208091040260200160405190810160405280929190818152602001828054600181600116156101000203166002900480156111b15780601f10611186576101008083540402835291602001916111b1565b820191906000526020600020905b81548152906001019060200180831161119457829003601f168201915b5050505050908060010160009054906101000a900473ffffffffffffffffffffffffffffffffffffffff16908060020154905083565b604051806060016040528060608152602001600073ffffffffffffffffffffffffffffffffffffffff168152602001600081525090565b828054600181600116156101000203166002900490600052602060002090601f016020900481019282601f1061125f57805160ff191683800117855561128d565b8280016001018555821561128d579182015b8281111561128c578251825591602001919060010190611271565b5b50905061129a91906112ce565b5090565b6040518060400160405280600073ffffffffffffffffffffffffffffffffffffffff168152602001600081525090565b6112f091905b808211156112ec5760008160009055506001016112d4565b5090565b9056fe7075626c69636174696f6e4e616d6520697320616c726561647920696e2075736561727469636c65732063616e206f6e6c7920626520616464656420746f2061207075626c69636174696f6e20627920746865207075626c69636174696f6e2063726561746f72a265627a7a72315820b03f772ac46a7dc97aeccc03e01a06d01a0a65702562838e416bbeeb3205896664736f6c63430005100032",
  "source": "pragma solidity >=0.4.25 <0.7.0;\n\ncontract pnlp {\n    struct Publication {\n        string ipnsHash;\n        address publisher;\n        uint256 timestamp;\n    }\n\n    struct Article {\n        address publisher;\n        uint256 timestamp;\n    }\n\n    struct Review {\n        bool approved;\n        uint8 rating;\n        address reviewer;\n    }\n\n    mapping(string => Publication) public publications;\n    mapping(string => Article) public articles;\n\n    // reviewerAddress, ipfsHash, requesterAddress\n    // mapping(address => mapping(string => address)) public reviewRequests;\n\n    // ipfsHash\n    mapping(string => Review[]) public reviews;\n\n    // serverAddress, requiredReviewer\n    // mapping(string => string[]) public requiredReviewers;\n\n    // function requestReview(string memory ipfsHash, address memory reviewer)\n    //     public\n    // {\n    //     emit RequestedReview(ipfsHash, reviewer, msg.sender, block.timestamp);\n    //     reviewRequests[reviewer][ipfsHash] = true;\n    // }\n\n    function reviewArticle(\n        string memory ipfsHash,\n        bool approved,\n        uint8 rating\n    ) public {\n        emit ReviewedArticle(\n            ipfsHash,\n            msg.sender,\n            approved,\n            rating,\n            block.timestamp\n        );\n\n        reviews[ipfsHash].push(Review(approved, rating, msg.sender));\n\n        // if (\n        //     reviewRequests[msg.sender] && reviewRequests[msg.sender][ipfsHash]\n        // ) {\n        //     delete reviewRequests[msg.sender][ipfsHash];\n        // }\n    }\n\n    event CreatedPublication(\n        string publicationName,\n        string ipnsHash,\n        address publisher,\n        uint256 timestamp\n    );\n\n    event PublishedArticle(\n        string publicationName,\n        address publisher,\n        uint256 timestamp\n    );\n\n    event ReviewedArticle(\n        string ipfsHash,\n        address reviewer,\n        bool approved,\n        uint8 rating,\n        uint256 timestamp\n    );\n\n    event RequestedReview(\n        string ipfsHash,\n        address reviewer,\n        address requester,\n        uint256 timestamp\n    );\n\n    function createPublication(\n        string memory publicationName,\n        string memory ipnsHash\n    ) public {\n        // Using ipns\n        // No collisions allowed!\n        // record callers address\n        // v3 Require a stake\n        require(\n            publications[publicationName].publisher == address(0),\n            \"publicationName is already in use\"\n        );\n        emit CreatedPublication(\n            publicationName,\n            ipnsHash,\n            msg.sender,\n            block.timestamp\n        );\n        Publication memory publication = Publication(\n            ipnsHash,\n            msg.sender,\n            block.timestamp\n        );\n        publications[publicationName] = publication;\n    }\n\n    function publishArticle(\n        string memory publicationName,\n        string memory ipfsHash\n    ) public {\n        require(\n            publications[publicationName].publisher == msg.sender,\n            \"articles can only be added to a publication by the publication creator\"\n        );\n\n        // Unsure about this following line. If we add it in, we need to make sure that we support it.\n        // We may want to require that the hash and the publication not be reused? Need to talk to team to figure out what we want to do...\n        // require(articles[ipfsHash].publisher == address(0), \"ipfsHash is already in use\");\n\n        emit PublishedArticle(publicationName, msg.sender, block.timestamp);\n        Article memory article = Article(msg.sender, block.timestamp);\n        articles[ipfsHash] = article;\n    }\n\n    // - Get all of the publications? - Not now (check out The Graph)\n    // - You know the publication, list all of the articles?\n    // - Get ipns hash of pulbication from name of pulbication\n    // - v3 Keep track of ipFs addresses of publications so that when ipns points to something else, history is kept.\n}\n",
  "sourcePath": "/Users/dp/code/pulp-network/pulp/pnlp-contract/contracts/pnlp.sol",
  "compiler": {
    "name": "solc",
    "version": "0.5.16+commit.9c3226ce.Emscripten.clang"
  },
  "schemaVersion": "3.4.1",
  "updatedAt": "2021-08-15T23:34:45.698Z",
  "devdoc": {
    "methods": {}
  },
  "userdoc": {
    "methods": {}
  }
}